{
  "contractName": "Auction",
  "abi": [
    {
      "inputs": [
        {
          "internalType": "enum Auction.dataType",
          "name": "_dt",
          "type": "uint8"
        },
        {
          "internalType": "enum Auction.algorithmType",
          "name": "_at",
          "type": "uint8"
        },
        {
          "internalType": "enum Auction.InfrastructureType",
          "name": "_it",
          "type": "uint8"
        },
        {
          "internalType": "enum Auction.slaStates",
          "name": "_slaS",
          "type": "uint8"
        },
        {
          "internalType": "uint256",
          "name": "_maxPrice",
          "type": "uint256"
        },
        {
          "internalType": "address",
          "name": "addressAuction",
          "type": "address"
        },
        {
          "internalType": "address",
          "name": "addressZero",
          "type": "address"
        }
      ],
      "payable": false,
      "stateMutability": "nonpayable",
      "type": "constructor"
    },
    {
      "constant": true,
      "inputs": [
        {
          "internalType": "address",
          "name": "",
          "type": "address"
        }
      ],
      "name": "addressToBid",
      "outputs": [
        {
          "internalType": "int256",
          "name": "price",
          "type": "int256"
        },
        {
          "internalType": "enum Auction.providerType",
          "name": "pt",
          "type": "uint8"
        },
        {
          "internalType": "address",
          "name": "ownerBid",
          "type": "address"
        },
        {
          "internalType": "uint256",
          "name": "id",
          "type": "uint256"
        }
      ],
      "payable": false,
      "stateMutability": "view",
      "type": "function"
    },
    {
      "constant": false,
      "inputs": [
        {
          "internalType": "int256",
          "name": "_price",
          "type": "int256"
        },
        {
          "internalType": "enum Auction.providerType",
          "name": "_pt",
          "type": "uint8"
        }
      ],
      "name": "placeBid",
      "outputs": [
        {
          "internalType": "bool",
          "name": "success",
          "type": "bool"
        }
      ],
      "payable": true,
      "stateMutability": "payable",
      "type": "function"
    },
    {
      "constant": false,
      "inputs": [
        {
          "internalType": "int256",
          "name": "_price",
          "type": "int256"
        }
      ],
      "name": "modifyBid",
      "outputs": [
        {
          "internalType": "bool",
          "name": "success",
          "type": "bool"
        }
      ],
      "payable": true,
      "stateMutability": "payable",
      "type": "function"
    },
    {
      "constant": false,
      "inputs": [
        {
          "internalType": "int256",
          "name": "_newBid",
          "type": "int256"
        }
      ],
      "name": "checkIfBestBid",
      "outputs": [
        {
          "internalType": "bool",
          "name": "",
          "type": "bool"
        }
      ],
      "payable": false,
      "stateMutability": "nonpayable",
      "type": "function"
    },
    {
      "constant": false,
      "inputs": [],
      "name": "adjudicate",
      "outputs": [
        {
          "internalType": "address[]",
          "name": "",
          "type": "address[]"
        }
      ],
      "payable": false,
      "stateMutability": "nonpayable",
      "type": "function"
    },
    {
      "constant": false,
      "inputs": [],
      "name": "getWinner",
      "outputs": [
        {
          "internalType": "address[]",
          "name": "",
          "type": "address[]"
        }
      ],
      "payable": false,
      "stateMutability": "nonpayable",
      "type": "function"
    },
    {
      "constant": false,
      "inputs": [
        {
          "internalType": "address",
          "name": "_ownerAddress",
          "type": "address"
        }
      ],
      "name": "getBidUser",
      "outputs": [
        {
          "components": [
            {
              "internalType": "int256",
              "name": "price",
              "type": "int256"
            },
            {
              "internalType": "enum Auction.providerType",
              "name": "pt",
              "type": "uint8"
            },
            {
              "internalType": "address",
              "name": "ownerBid",
              "type": "address"
            },
            {
              "internalType": "uint256",
              "name": "id",
              "type": "uint256"
            }
          ],
          "internalType": "struct Auction.Bid",
          "name": "",
          "type": "tuple"
        }
      ],
      "payable": false,
      "stateMutability": "nonpayable",
      "type": "function"
    }
  ],
  "bytecode": "0x608060405261025860055560006007553480156200001c57600080fd5b50604051620012eb380380620012eb833981810160405262000042919081019062000121565b4260068190555033600260006101000a81548173ffffffffffffffffffffffffffffffffffffffff021916908373ffffffffffffffffffffffffffffffffffffffff1602179055505050505050505062000284565b600081519050620000a8816200020c565b92915050565b600081519050620000bf8162000226565b92915050565b600081519050620000d68162000237565b92915050565b600081519050620000ed8162000248565b92915050565b600081519050620001048162000259565b92915050565b6000815190506200011b816200026a565b92915050565b600080600080600080600060e0888a0312156200013d57600080fd5b60006200014d8a828b01620000dc565b9750506020620001608a828b01620000c5565b9650506040620001738a828b01620000ae565b9550506060620001868a828b01620000f3565b9450506080620001998a828b016200010a565b93505060a0620001ac8a828b0162000097565b92505060c0620001bf8a828b0162000097565b91505092959891949750929550565b6000620001db82620001e2565b9050919050565b600073ffffffffffffffffffffffffffffffffffffffff82169050919050565b6000819050919050565b6200021781620001ce565b81146200022357600080fd5b50565b600281106200023457600080fd5b50565b600281106200024557600080fd5b50565b600281106200025657600080fd5b50565b600381106200026757600080fd5b50565b620002758162000202565b81146200028157600080fd5b50565b61105780620002946000396000f3fe6080604052600436106100705760003560e01c80635c6a859c1161004e5780635c6a859c1461011a578063816f72af1461014a5780638e7ea5b21461017a578063ceeb4baa146101a557610070565b8063101e30f4146100755780631d73bb92146100b25780633f152d4e146100ef575b600080fd5b34801561008157600080fd5b5061009c60048036036100979190810190610c9c565b6101e5565b6040516100a99190610efe565b60405180910390f35b3480156100be57600080fd5b506100d960048036036100d49190810190610cc5565b6102d5565b6040516100e69190610e9e565b60405180910390f35b3480156100fb57600080fd5b50610104610336565b6040516101119190610e7c565b60405180910390f35b610134600480360361012f9190810190610cee565b6103dc565b6040516101419190610e9e565b60405180910390f35b610164600480360361015f9190810190610cc5565b61057d565b6040516101719190610e9e565b60405180910390f35b34801561018657600080fd5b5061018f6105ec565b60405161019c9190610e7c565b60405180910390f35b3480156101b157600080fd5b506101cc60048036036101c79190810190610c9c565b610b9b565b6040516101dc9493929190610eb9565b60405180910390f35b6101ed610c14565b600860008373ffffffffffffffffffffffffffffffffffffffff1673ffffffffffffffffffffffffffffffffffffffff168152602001908152602001600020604051806080016040529081600082015481526020016001820160009054906101000a900460ff16600281111561025f57fe5b600281111561026a57fe5b81526020016001820160019054906101000a900473ffffffffffffffffffffffffffffffffffffffff1673ffffffffffffffffffffffffffffffffffffffff1673ffffffffffffffffffffffffffffffffffffffff1681526020016002820154815250509050919050565b600080600860003373ffffffffffffffffffffffffffffffffffffffff1673ffffffffffffffffffffffffffffffffffffffff1681526020019081526020016000206000015490508083121561032f576001915050610331565b505b919050565b6060600260009054906101000a900473ffffffffffffffffffffffffffffffffffffffff1673ffffffffffffffffffffffffffffffffffffffff163373ffffffffffffffffffffffffffffffffffffffff161461039257600080fd5b600554600654014211156103a557600080fd5b60606002600360146101000a81548160ff021916908360028111156103c657fe5b02179055506103d36105ec565b90508091505090565b60006005546006540142106103f057600080fd5b60006103fa610bf8565b9050610404610c14565b604051806080016040528086815260200185600281111561042157fe5b81526020013373ffffffffffffffffffffffffffffffffffffffff16815260200183815250905080600860003373ffffffffffffffffffffffffffffffffffffffff1673ffffffffffffffffffffffffffffffffffffffff1681526020019081526020016000206000820151816000015560208201518160010160006101000a81548160ff021916908360028111156104b657fe5b021790555060408201518160010160016101000a81548173ffffffffffffffffffffffffffffffffffffffff021916908373ffffffffffffffffffffffffffffffffffffffff1602179055506060820151816002015590505060093390806001815401808255809150509060018203906000526020600020016000909192909190916101000a81548173ffffffffffffffffffffffffffffffffffffffff021916908373ffffffffffffffffffffffffffffffffffffffff16021790555050505092915050565b600060055460065401421061059157600080fd5b61059a826102d5565b156105e75781600860003373ffffffffffffffffffffffffffffffffffffffff1673ffffffffffffffffffffffffffffffffffffffff168152602001908152602001600020600001819055505b919050565b60606005546006540142101561060157600080fd5b60007fffffffffffffffffffffffffffffffffffffffffffffffffffffffffffffffff90506000807fffffffffffffffffffffffffffffffffffffffffffffffffffffffffffffffff90506000807fffffffffffffffffffffffffffffffffffffffffffffffffffffffffffffffff9050600080600090505b600980549050811015610b08576000600860006009848154811061069a57fe5b9060005260206000200160009054906101000a900473ffffffffffffffffffffffffffffffffffffffff1673ffffffffffffffffffffffffffffffffffffffff1673ffffffffffffffffffffffffffffffffffffffff1681526020019081526020016000206000015490506000600281111561071257fe5b600860006009858154811061072357fe5b9060005260206000200160009054906101000a900473ffffffffffffffffffffffffffffffffffffffff1673ffffffffffffffffffffffffffffffffffffffff1673ffffffffffffffffffffffffffffffffffffffff16815260200190815260200160002060010160009054906101000a900460ff1660028111156107a457fe5b1415610857578781121561085657809750600982815481106107c257fe5b9060005260206000200160009054906101000a900473ffffffffffffffffffffffffffffffffffffffff16965060048790806001815401808255809150509060018203906000526020600020016000909192909190916101000a81548173ffffffffffffffffffffffffffffffffffffffff021916908373ffffffffffffffffffffffffffffffffffffffff160217905550505b5b6001600281111561086457fe5b600860006009858154811061087557fe5b9060005260206000200160009054906101000a900473ffffffffffffffffffffffffffffffffffffffff1673ffffffffffffffffffffffffffffffffffffffff1673ffffffffffffffffffffffffffffffffffffffff16815260200190815260200160002060010160009054906101000a900460ff1660028111156108f657fe5b14156109a957878112156109a8578095506009828154811061091457fe5b9060005260206000200160009054906101000a900473ffffffffffffffffffffffffffffffffffffffff16945060048590806001815401808255809150509060018203906000526020600020016000909192909190916101000a81548173ffffffffffffffffffffffffffffffffffffffff021916908373ffffffffffffffffffffffffffffffffffffffff160217905550505b5b6002808111156109b557fe5b60086000600985815481106109c657fe5b9060005260206000200160009054906101000a900473ffffffffffffffffffffffffffffffffffffffff1673ffffffffffffffffffffffffffffffffffffffff1673ffffffffffffffffffffffffffffffffffffffff16815260200190815260200160002060010160009054906101000a900460ff166002811115610a4757fe5b1415610afa5783811215610af95780935060098281548110610a6557fe5b9060005260206000200160009054906101000a900473ffffffffffffffffffffffffffffffffffffffff16925060048390806001815401808255809150509060018203906000526020600020016000909192909190916101000a81548173ffffffffffffffffffffffffffffffffffffffff021916908373ffffffffffffffffffffffffffffffffffffffff160217905550505b5b50808060010191505061067a565b506004805480602002602001604051908101604052809291908181526020018280548015610b8b57602002820191906000526020600020905b8160009054906101000a900473ffffffffffffffffffffffffffffffffffffffff1673ffffffffffffffffffffffffffffffffffffffff1681526020019060010190808311610b41575b5050505050965050505050505090565b60086020528060005260406000206000915090508060000154908060010160009054906101000a900460ff16908060010160019054906101000a900473ffffffffffffffffffffffffffffffffffffffff16908060020154905084565b6000600760008154809291906001019190505550600754905090565b60405180608001604052806000815260200160006002811115610c3357fe5b8152602001600073ffffffffffffffffffffffffffffffffffffffff168152602001600081525090565b600081359050610c6c81610fd6565b92915050565b600081359050610c8181610fed565b92915050565b600081359050610c9681610ffd565b92915050565b600060208284031215610cae57600080fd5b6000610cbc84828501610c5d565b91505092915050565b600060208284031215610cd757600080fd5b6000610ce584828501610c87565b91505092915050565b60008060408385031215610d0157600080fd5b6000610d0f85828601610c87565b9250506020610d2085828601610c72565b9150509250929050565b6000610d368383610d42565b60208301905092915050565b610d4b81610f52565b82525050565b610d5a81610f52565b82525050565b6000610d6b82610f29565b610d758185610f41565b9350610d8083610f19565b8060005b83811015610db1578151610d988882610d2a565b9750610da383610f34565b925050600181019050610d84565b5085935050505092915050565b610dc781610f64565b82525050565b610dd681610fb7565b82525050565b610de581610fb7565b82525050565b610df481610f83565b82525050565b610e0381610f83565b82525050565b608082016000820151610e1f6000850182610deb565b506020820151610e326020850182610dcd565b506040820151610e456040850182610d42565b506060820151610e586060850182610e5e565b50505050565b610e6781610fad565b82525050565b610e7681610fad565b82525050565b60006020820190508181036000830152610e968184610d60565b905092915050565b6000602082019050610eb36000830184610dbe565b92915050565b6000608082019050610ece6000830187610dfa565b610edb6020830186610ddc565b610ee86040830185610d51565b610ef56060830184610e6d565b95945050505050565b6000608082019050610f136000830184610e09565b92915050565b6000819050602082019050919050565b600081519050919050565b6000602082019050919050565b600082825260208201905092915050565b6000610f5d82610f8d565b9050919050565b60008115159050919050565b6000819050610f7e82610fc9565b919050565b6000819050919050565b600073ffffffffffffffffffffffffffffffffffffffff82169050919050565b6000819050919050565b6000610fc282610f70565b9050919050565b60038110610fd357fe5b50565b610fdf81610f52565b8114610fea57600080fd5b50565b60038110610ffa57600080fd5b50565b61100681610f83565b811461101157600080fd5b5056fea365627a7a723158205437497010b52cdbc0ddca6e3f51a96407168a7835d44e5f8e558d3f683e9f366c6578706572696d656e74616cf564736f6c63430005100040",
  "source": "// SPDX-License-Identifier: GPL-3.0\r\n\r\npragma solidity >=0.5.0 <0.8.0;\r\npragma experimental ABIEncoderV2;\r\nimport \"./Factory.sol\";\r\n\r\n\r\ncontract Auction {\r\n\r\n    //FIELD \r\n    Factory factoryInstance;\r\n    address factoryAddress;\r\n    address addressSlaOwner;\r\n    address winnerAuction; //ADDED ! \r\n    slaStates currentState; //ADDED ! \r\n    address[] winnersAuctionArray;\r\n\r\n    uint timer = 10 minutes;\r\n    uint timeAtStartContract;\r\n    \r\n    uint uniqueIdCounter = 0;\r\n\r\n    \r\n    //MAPPING\r\n    //mapping(address => uint256) public lowestBidByAddress; //disons qu'on stockera le lowestBid pour une addresse \r\n                                                           // if (newBid < lowestBidByAddress[providerAddress]) { \r\n                                                           //     lowestBidByAddress[providerAddress] = newBid }\r\n    //mapping(uint256 => Bid) public idToBid; \r\n    \r\n    mapping (address => Bid ) public addressToBid; //map une addresse à un bid \r\n    address[] addressArray;                        //un [] d'addresse \r\n    \r\n\r\n    //ENUM\r\n    enum dataType {Image, Csv}\r\n    enum algorithmType {MachineLearning, NeuralNetwork}\r\n    enum InfrastructureType {Sgx, NoSgx}\r\n    enum slaStates {Available, inCourse, Finished} //Available: didn't start Auction / InCourse: started Auction / Finished: Finished Auction \r\n    enum providerType {Dp, Ap, Ip}\r\n    enum algorithmRequirement {isSgxCompatible, isNotSgxCompatible} //ADDED\r\n    \r\n    //STRUCT\r\n    struct Bid {\r\n        int price;\r\n        providerType pt;\r\n        address ownerBid;\r\n        uint id;\r\n    }\r\n    \r\n    /*\r\n    struct ProviderData {\r\n        \r\n    }\r\n        \r\n    struct ProviderAlgorithm {\r\n        isSgxCompatible, \r\n        isNotSgxCompatible\r\n    }\r\n    \r\n    struct ProviderInfrastructure {\r\n         \r\n    }\r\n    */\r\n\r\n    //MODIFIER\r\n    modifier isOwnerOfContract() {\r\n        require(msg.sender == addressSlaOwner); //the one creating the auction instance in Factory \r\n        _;\r\n    }\r\n\r\n\r\n    constructor(dataType _dt, algorithmType _at, InfrastructureType _it, slaStates _slaS, uint _maxPrice, address addressAuction, address addressZero) public {\r\n        \r\n        timeAtStartContract = block.timestamp;\r\n        addressSlaOwner = msg.sender; \r\n    }\r\n\r\n    function placeBid(int _price, providerType _pt) public payable returns (bool success) { \r\n        \r\n        require(block.timestamp < timeAtStartContract + timer);\r\n\r\n        uint idBid = generateUniqueId();\r\n            \r\n            Bid memory firstBid = Bid(\r\n                _price,\r\n                _pt,\r\n                msg.sender,\r\n                idBid\r\n            );\r\n            \r\n            //idToBid[idBid] = firstBid;\r\n            //lowestBidByAddress[msg.sender] = idBid;\r\n            \r\n            addressToBid[msg.sender] = firstBid;\r\n            addressArray.push(msg.sender);\r\n        }\r\n        \r\n        \r\n        \r\n    function modifyBid(int _price) public payable returns (bool success) {\r\n            \r\n        require(block.timestamp < timeAtStartContract + timer);\r\n        \r\n        if (checkIfBestBid(_price)) {\r\n\r\n            /*\r\n            uint id = lowestBidByAddress[msg.sender];\r\n            Bid storage lowestBidCurrent = idToBid[id];\r\n            lowestBidCurrent.price = _price;\r\n            */\r\n            \r\n            addressToBid[msg.sender].price =  _price; \r\n        }\r\n    }\r\n        \r\n    function checkIfBestBid(int _newBid) public returns(bool) {\r\n        \r\n        /*\r\n        uint id = lowestBidByAddress[msg.sender];\r\n        uint lowestBidCurrent = idToBid[id].price;\r\n        */\r\n        \r\n        int lowestBidCurrent = addressToBid[msg.sender].price;\r\n\r\n        if (_newBid < lowestBidCurrent) {\r\n                return true;\r\n            }\r\n        }\r\n        \r\n        \r\n    function generateUniqueId() private returns(uint) {\r\n        uniqueIdCounter++;\r\n        return uniqueIdCounter;\r\n    }\r\n    \r\n    \r\n    function adjudicate() public isOwnerOfContract returns (address[] memory)  { //terminer l'enchère + set winnerAuction + transfer funds \r\n        \r\n        require(block.timestamp <= timeAtStartContract + timer);\r\n        \r\n        address[] memory arrayWinner;\r\n        \r\n        currentState = slaStates.Finished; //Finish Auction\r\n        arrayWinner = getWinner();\r\n\r\n        \r\n        return arrayWinner;\r\n    }\r\n    \r\n    function getWinner() public returns (address[] memory) { //accéder paire gagnante \r\n        \r\n    require(block.timestamp >= timeAtStartContract + timer);\r\n    \r\n    int currentPriceDataP = -1;\r\n    address addressOfLowestPriceDataP;   \r\n   \r\n    int currentPriceAlgoP = -1;\r\n    address addressOfLowestPriceAlgoP;   \r\n    \r\n    int currentPriceInfraP = -1;\r\n    address addressOfLowestPriceInfraP;\r\n     \r\n    for (uint i = 0; i < addressArray.length; i++) {\r\n        \r\n        int price = addressToBid[addressArray[i]].price;\r\n\r\n        if (addressToBid[addressArray[i]].pt == providerType.Dp) {\r\n            if (price < currentPriceDataP) {\r\n            currentPriceDataP = price; \r\n            addressOfLowestPriceDataP = addressArray[i];\r\n            winnersAuctionArray.push(addressOfLowestPriceDataP);\r\n        }\r\n        }\r\n        \r\n        if (addressToBid[addressArray[i]].pt == providerType.Ap) {\r\n            if (price < currentPriceDataP) {\r\n            currentPriceAlgoP= price; \r\n            addressOfLowestPriceAlgoP = addressArray[i];\r\n            winnersAuctionArray.push(addressOfLowestPriceAlgoP);\r\n        }\r\n        }\r\n        \r\n        if (addressToBid[addressArray[i]].pt == providerType.Ip) {\r\n            if (price < currentPriceInfraP) {\r\n            currentPriceInfraP= price; \r\n            addressOfLowestPriceInfraP = addressArray[i];\r\n            winnersAuctionArray.push(addressOfLowestPriceInfraP);\r\n        }\r\n        }\r\n    }\r\n    return winnersAuctionArray;\r\n    }\r\n    \r\n    function getBidUser(address _ownerAddress) public returns (Bid memory) {\r\n        return addressToBid[_ownerAddress];\r\n    }\r\n}\r\n",
  "sourcePath": "C:\\marketplace\\contracts\\Auction.sol",
  "compiler": {
    "name": "solc",
    "version": "0.5.16+commit.9c3226ce.Emscripten.clang"
  },
  "schemaVersion": "3.3.4",
  "updatedAt": "2021-03-23T14:12:41.119Z",
  "devdoc": {
    "methods": {}
  },
  "userdoc": {
    "methods": {}
  }
}