{
  "contractName": "Factory",
  "abi": [
    {
      "inputs": [],
      "payable": false,
      "stateMutability": "nonpayable",
      "type": "constructor"
    },
    {
      "anonymous": false,
      "inputs": [
        {
          "indexed": false,
          "internalType": "address",
          "name": "auctionContract",
          "type": "address"
        },
        {
          "indexed": false,
          "internalType": "address",
          "name": "owner",
          "type": "address"
        },
        {
          "indexed": false,
          "internalType": "uint256",
          "name": "numberSLA",
          "type": "uint256"
        },
        {
          "indexed": false,
          "internalType": "address[]",
          "name": "addressSLA",
          "type": "address[]"
        }
      ],
      "name": "slaCreated",
      "type": "event"
    },
    {
      "constant": true,
      "inputs": [
        {
          "internalType": "uint256",
          "name": "",
          "type": "uint256"
        }
      ],
      "name": "slaArray",
      "outputs": [
        {
          "internalType": "address",
          "name": "",
          "type": "address"
        }
      ],
      "payable": false,
      "stateMutability": "view",
      "type": "function"
    },
    {
      "constant": false,
      "inputs": [
        {
          "internalType": "enum Auction.dataType",
          "name": "_td",
          "type": "uint8"
        },
        {
          "internalType": "enum Auction.algorithmType",
          "name": "_at",
          "type": "uint8"
        },
        {
          "internalType": "enum Auction.InfrastructureType",
          "name": "_it",
          "type": "uint8"
        },
        {
          "internalType": "uint256",
          "name": "_maxPrice",
          "type": "uint256"
        }
      ],
      "name": "createAuction",
      "outputs": [
        {
          "internalType": "address",
          "name": "slaAddress",
          "type": "address"
        }
      ],
      "payable": false,
      "stateMutability": "nonpayable",
      "type": "function"
    },
    {
      "constant": true,
      "inputs": [
        {
          "internalType": "uint256",
          "name": "_slaId",
          "type": "uint256"
        }
      ],
      "name": "getSLA",
      "outputs": [
        {
          "internalType": "contract Auction",
          "name": "",
          "type": "address"
        }
      ],
      "payable": false,
      "stateMutability": "view",
      "type": "function"
    }
  ],
  "bytecode": "0x60806040526000805534801561001457600080fd5b50611bb0806100246000396000f3fe60806040523480156200001157600080fd5b5060043610620000465760003560e01c8063423a39c4146200004b578063bf7792d21462000081578063fcbf33f414620000b7575b600080fd5b62000069600480360362000063919081019062000350565b620000ed565b6040516200007891906200050e565b60405180910390f35b6200009f6004803603620000999190810190620003bc565b62000251565b604051620000ae91906200057f565b60405180910390f35b620000d56004803603620000cf9190810190620003bc565b6200028e565b604051620000e491906200050e565b60405180910390f35b600080620000fa620002cb565b905060008686866000873060006040516200011590620002e6565b6200012797969594939291906200059c565b604051809103906000f08015801562000144573d6000803e3d6000fd5b509050806002600084815260200190815260200160002060006101000a81548173ffffffffffffffffffffffffffffffffffffffff021916908373ffffffffffffffffffffffffffffffffffffffff16021790555060018190806001815401808255809150509060018203906000526020600020016000909192909190916101000a81548173ffffffffffffffffffffffffffffffffffffffff021916908373ffffffffffffffffffffffffffffffffffffffff160217905550507fbfe2a3d4075b05886d71382e1df4cad6901da648a514ee399d03ecd7d5e8af6c813360018054905060016040516200023c94939291906200052b565b60405180910390a18092505050949350505050565b60006002600083815260200190815260200160002060009054906101000a900473ffffffffffffffffffffffffffffffffffffffff169050919050565b600181815481106200029c57fe5b906000526020600020016000915054906101000a900473ffffffffffffffffffffffffffffffffffffffff1681565b60008060008154809291906001019190505550600054905090565b6112eb806200088383390190565b600081359050620003058162000835565b92915050565b6000813590506200031c8162000846565b92915050565b600081359050620003338162000857565b92915050565b6000813590506200034a8162000868565b92915050565b600080600080608085870312156200036757600080fd5b6000620003778782880162000322565b94505060206200038a878288016200030b565b93505060406200039d87828801620002f4565b9250506060620003b08782880162000339565b91505092959194509250565b600060208284031215620003cf57600080fd5b6000620003df8482850162000339565b91505092915050565b6000620003f6838362000413565b60208301905092915050565b6200040d8162000709565b82525050565b6200041e8162000677565b82525050565b6200042f8162000677565b82525050565b600062000442826200062e565b6200044e818562000646565b93506200045b8362000619565b8060005b838110156200049b576200047382620007db565b6200047f8882620003e8565b97506200048c8362000639565b9250506001810190506200045f565b5085935050505092915050565b620004b3816200071d565b82525050565b620004c48162000745565b82525050565b620004d58162000759565b82525050565b620004e6816200076d565b82525050565b620004f78162000781565b82525050565b6200050881620006ff565b82525050565b600060208201905062000525600083018462000424565b92915050565b600060808201905062000542600083018762000424565b62000551602083018662000402565b620005606040830185620004fd565b818103606083015262000574818462000435565b905095945050505050565b6000602082019050620005966000830184620004a8565b92915050565b600060e082019050620005b3600083018a620004db565b620005c26020830189620004ca565b620005d16040830188620004b9565b620005e06060830187620004ec565b620005ef6080830186620004fd565b620005fe60a083018562000424565b6200060d60c083018462000402565b98975050505050505050565b60008190508160005260206000209050919050565b600081549050919050565b6000600182019050919050565b600082825260208201905092915050565b600073ffffffffffffffffffffffffffffffffffffffff82169050919050565b60006200068482620006df565b9050919050565b60008190506200069b82620007fd565b919050565b6000819050620006b0826200080b565b919050565b6000819050620006c58262000819565b919050565b6000819050620006da8262000827565b919050565b600073ffffffffffffffffffffffffffffffffffffffff82169050919050565b6000819050919050565b6000620007168262000795565b9050919050565b60006200072a8262000731565b9050919050565b60006200073e82620006df565b9050919050565b600062000752826200068b565b9050919050565b60006200076682620006a0565b9050919050565b60006200077a82620006b5565b9050919050565b60006200078e82620006ca565b9050919050565b6000620007a282620007a9565b9050919050565b6000620007b682620006df565b9050919050565b6000620007d4620007ce83620007f0565b62000657565b9050919050565b6000620007e98254620007bd565b9050919050565b60008160001c9050919050565b600281106200080857fe5b50565b600281106200081657fe5b50565b600281106200082457fe5b50565b600381106200083257fe5b50565b600281106200084357600080fd5b50565b600281106200085457600080fd5b50565b600281106200086557600080fd5b50565b6200087381620006ff565b81146200087f57600080fd5b5056fe608060405261025860055560006007553480156200001c57600080fd5b50604051620012eb380380620012eb833981810160405262000042919081019062000121565b4260068190555033600260006101000a81548173ffffffffffffffffffffffffffffffffffffffff021916908373ffffffffffffffffffffffffffffffffffffffff1602179055505050505050505062000284565b600081519050620000a8816200020c565b92915050565b600081519050620000bf8162000226565b92915050565b600081519050620000d68162000237565b92915050565b600081519050620000ed8162000248565b92915050565b600081519050620001048162000259565b92915050565b6000815190506200011b816200026a565b92915050565b600080600080600080600060e0888a0312156200013d57600080fd5b60006200014d8a828b01620000dc565b9750506020620001608a828b01620000c5565b9650506040620001738a828b01620000ae565b9550506060620001868a828b01620000f3565b9450506080620001998a828b016200010a565b93505060a0620001ac8a828b0162000097565b92505060c0620001bf8a828b0162000097565b91505092959891949750929550565b6000620001db82620001e2565b9050919050565b600073ffffffffffffffffffffffffffffffffffffffff82169050919050565b6000819050919050565b6200021781620001ce565b81146200022357600080fd5b50565b600281106200023457600080fd5b50565b600281106200024557600080fd5b50565b600281106200025657600080fd5b50565b600381106200026757600080fd5b50565b620002758162000202565b81146200028157600080fd5b50565b61105780620002946000396000f3fe6080604052600436106100705760003560e01c80635c6a859c1161004e5780635c6a859c1461011a578063816f72af1461014a5780638e7ea5b21461017a578063ceeb4baa146101a557610070565b8063101e30f4146100755780631d73bb92146100b25780633f152d4e146100ef575b600080fd5b34801561008157600080fd5b5061009c60048036036100979190810190610c9c565b6101e5565b6040516100a99190610efe565b60405180910390f35b3480156100be57600080fd5b506100d960048036036100d49190810190610cc5565b6102d5565b6040516100e69190610e9e565b60405180910390f35b3480156100fb57600080fd5b50610104610336565b6040516101119190610e7c565b60405180910390f35b610134600480360361012f9190810190610cee565b6103dc565b6040516101419190610e9e565b60405180910390f35b610164600480360361015f9190810190610cc5565b61057d565b6040516101719190610e9e565b60405180910390f35b34801561018657600080fd5b5061018f6105ec565b60405161019c9190610e7c565b60405180910390f35b3480156101b157600080fd5b506101cc60048036036101c79190810190610c9c565b610b9b565b6040516101dc9493929190610eb9565b60405180910390f35b6101ed610c14565b600860008373ffffffffffffffffffffffffffffffffffffffff1673ffffffffffffffffffffffffffffffffffffffff168152602001908152602001600020604051806080016040529081600082015481526020016001820160009054906101000a900460ff16600281111561025f57fe5b600281111561026a57fe5b81526020016001820160019054906101000a900473ffffffffffffffffffffffffffffffffffffffff1673ffffffffffffffffffffffffffffffffffffffff1673ffffffffffffffffffffffffffffffffffffffff1681526020016002820154815250509050919050565b600080600860003373ffffffffffffffffffffffffffffffffffffffff1673ffffffffffffffffffffffffffffffffffffffff1681526020019081526020016000206000015490508083121561032f576001915050610331565b505b919050565b6060600260009054906101000a900473ffffffffffffffffffffffffffffffffffffffff1673ffffffffffffffffffffffffffffffffffffffff163373ffffffffffffffffffffffffffffffffffffffff161461039257600080fd5b600554600654014211156103a557600080fd5b60606002600360146101000a81548160ff021916908360028111156103c657fe5b02179055506103d36105ec565b90508091505090565b60006005546006540142106103f057600080fd5b60006103fa610bf8565b9050610404610c14565b604051806080016040528086815260200185600281111561042157fe5b81526020013373ffffffffffffffffffffffffffffffffffffffff16815260200183815250905080600860003373ffffffffffffffffffffffffffffffffffffffff1673ffffffffffffffffffffffffffffffffffffffff1681526020019081526020016000206000820151816000015560208201518160010160006101000a81548160ff021916908360028111156104b657fe5b021790555060408201518160010160016101000a81548173ffffffffffffffffffffffffffffffffffffffff021916908373ffffffffffffffffffffffffffffffffffffffff1602179055506060820151816002015590505060093390806001815401808255809150509060018203906000526020600020016000909192909190916101000a81548173ffffffffffffffffffffffffffffffffffffffff021916908373ffffffffffffffffffffffffffffffffffffffff16021790555050505092915050565b600060055460065401421061059157600080fd5b61059a826102d5565b156105e75781600860003373ffffffffffffffffffffffffffffffffffffffff1673ffffffffffffffffffffffffffffffffffffffff168152602001908152602001600020600001819055505b919050565b60606005546006540142101561060157600080fd5b60007fffffffffffffffffffffffffffffffffffffffffffffffffffffffffffffffff90506000807fffffffffffffffffffffffffffffffffffffffffffffffffffffffffffffffff90506000807fffffffffffffffffffffffffffffffffffffffffffffffffffffffffffffffff9050600080600090505b600980549050811015610b08576000600860006009848154811061069a57fe5b9060005260206000200160009054906101000a900473ffffffffffffffffffffffffffffffffffffffff1673ffffffffffffffffffffffffffffffffffffffff1673ffffffffffffffffffffffffffffffffffffffff1681526020019081526020016000206000015490506000600281111561071257fe5b600860006009858154811061072357fe5b9060005260206000200160009054906101000a900473ffffffffffffffffffffffffffffffffffffffff1673ffffffffffffffffffffffffffffffffffffffff1673ffffffffffffffffffffffffffffffffffffffff16815260200190815260200160002060010160009054906101000a900460ff1660028111156107a457fe5b1415610857578781121561085657809750600982815481106107c257fe5b9060005260206000200160009054906101000a900473ffffffffffffffffffffffffffffffffffffffff16965060048790806001815401808255809150509060018203906000526020600020016000909192909190916101000a81548173ffffffffffffffffffffffffffffffffffffffff021916908373ffffffffffffffffffffffffffffffffffffffff160217905550505b5b6001600281111561086457fe5b600860006009858154811061087557fe5b9060005260206000200160009054906101000a900473ffffffffffffffffffffffffffffffffffffffff1673ffffffffffffffffffffffffffffffffffffffff1673ffffffffffffffffffffffffffffffffffffffff16815260200190815260200160002060010160009054906101000a900460ff1660028111156108f657fe5b14156109a957878112156109a8578095506009828154811061091457fe5b9060005260206000200160009054906101000a900473ffffffffffffffffffffffffffffffffffffffff16945060048590806001815401808255809150509060018203906000526020600020016000909192909190916101000a81548173ffffffffffffffffffffffffffffffffffffffff021916908373ffffffffffffffffffffffffffffffffffffffff160217905550505b5b6002808111156109b557fe5b60086000600985815481106109c657fe5b9060005260206000200160009054906101000a900473ffffffffffffffffffffffffffffffffffffffff1673ffffffffffffffffffffffffffffffffffffffff1673ffffffffffffffffffffffffffffffffffffffff16815260200190815260200160002060010160009054906101000a900460ff166002811115610a4757fe5b1415610afa5783811215610af95780935060098281548110610a6557fe5b9060005260206000200160009054906101000a900473ffffffffffffffffffffffffffffffffffffffff16925060048390806001815401808255809150509060018203906000526020600020016000909192909190916101000a81548173ffffffffffffffffffffffffffffffffffffffff021916908373ffffffffffffffffffffffffffffffffffffffff160217905550505b5b50808060010191505061067a565b506004805480602002602001604051908101604052809291908181526020018280548015610b8b57602002820191906000526020600020905b8160009054906101000a900473ffffffffffffffffffffffffffffffffffffffff1673ffffffffffffffffffffffffffffffffffffffff1681526020019060010190808311610b41575b5050505050965050505050505090565b60086020528060005260406000206000915090508060000154908060010160009054906101000a900460ff16908060010160019054906101000a900473ffffffffffffffffffffffffffffffffffffffff16908060020154905084565b6000600760008154809291906001019190505550600754905090565b60405180608001604052806000815260200160006002811115610c3357fe5b8152602001600073ffffffffffffffffffffffffffffffffffffffff168152602001600081525090565b600081359050610c6c81610fd6565b92915050565b600081359050610c8181610fed565b92915050565b600081359050610c9681610ffd565b92915050565b600060208284031215610cae57600080fd5b6000610cbc84828501610c5d565b91505092915050565b600060208284031215610cd757600080fd5b6000610ce584828501610c87565b91505092915050565b60008060408385031215610d0157600080fd5b6000610d0f85828601610c87565b9250506020610d2085828601610c72565b9150509250929050565b6000610d368383610d42565b60208301905092915050565b610d4b81610f52565b82525050565b610d5a81610f52565b82525050565b6000610d6b82610f29565b610d758185610f41565b9350610d8083610f19565b8060005b83811015610db1578151610d988882610d2a565b9750610da383610f34565b925050600181019050610d84565b5085935050505092915050565b610dc781610f64565b82525050565b610dd681610fb7565b82525050565b610de581610fb7565b82525050565b610df481610f83565b82525050565b610e0381610f83565b82525050565b608082016000820151610e1f6000850182610deb565b506020820151610e326020850182610dcd565b506040820151610e456040850182610d42565b506060820151610e586060850182610e5e565b50505050565b610e6781610fad565b82525050565b610e7681610fad565b82525050565b60006020820190508181036000830152610e968184610d60565b905092915050565b6000602082019050610eb36000830184610dbe565b92915050565b6000608082019050610ece6000830187610dfa565b610edb6020830186610ddc565b610ee86040830185610d51565b610ef56060830184610e6d565b95945050505050565b6000608082019050610f136000830184610e09565b92915050565b6000819050602082019050919050565b600081519050919050565b6000602082019050919050565b600082825260208201905092915050565b6000610f5d82610f8d565b9050919050565b60008115159050919050565b6000819050610f7e82610fc9565b919050565b6000819050919050565b600073ffffffffffffffffffffffffffffffffffffffff82169050919050565b6000819050919050565b6000610fc282610f70565b9050919050565b60038110610fd357fe5b50565b610fdf81610f52565b8114610fea57600080fd5b50565b60038110610ffa57600080fd5b50565b61100681610f83565b811461101157600080fd5b5056fea365627a7a723158205437497010b52cdbc0ddca6e3f51a96407168a7835d44e5f8e558d3f683e9f366c6578706572696d656e74616cf564736f6c63430005100040a365627a7a72315820b931852fc397518e249dd0b9e562518ae4b03204a56fd46499666eb1c31fbcca6c6578706572696d656e74616cf564736f6c63430005100040",
  "source": "// SPDX-License-Identifier: GPL-3.0\r\n\r\npragma solidity >=0.5.0 <0.8.0;\r\npragma experimental ABIEncoderV2;\r\n\r\nimport \"./Auction.sol\";\r\n\r\n//Factory est un répertoire contenant toutes les Auction ==> de manière à pouvoir y accéder plus tard \r\n\r\ncontract Factory { \r\n\r\n    uint uniqueIdCounter = 0;\r\n    \r\n    //ARRAY\r\n    address[] public slaArray;\r\n\r\n    mapping (uint => Auction) slaStore;    \r\n\r\n    event slaCreated(address auctionContract, address owner, uint numberSLA, address[] addressSLA);\r\n    \r\n    \r\n    constructor() public {\r\n        \r\n    }\r\n\r\n    \r\n    function createAuction(Auction.dataType _td, Auction.algorithmType _at, Auction.InfrastructureType _it, uint _maxPrice) public returns (address slaAddress) {\r\n        \r\n        uint newId = generateUniqueId();\r\n\r\n        Auction auctionObject = new Auction(\r\n                _td,\r\n                _at,\r\n                _it,\r\n                Auction.slaStates.Available,\r\n                _maxPrice,\r\n                address(this),\r\n                address(0)\r\n            );\r\n            \r\n        slaStore[newId] = auctionObject; //mapping or array ? \r\n        slaArray.push(address(auctionObject));\r\n        emit slaCreated(address(auctionObject), msg.sender, slaArray.length, slaArray); //send event\r\n        \r\n        return address(auctionObject);\r\n    }\r\n    \r\n    \r\n    \r\n    function generateUniqueId() private returns(uint) {\r\n        uniqueIdCounter++;\r\n        return uniqueIdCounter;\r\n    }\r\n    \r\n    function getSLA(uint _slaId) public view returns (Auction) {\r\n        //Ajouter un require\r\n        return slaStore[_slaId];\r\n    }\r\n}\r\n",
  "sourcePath": "C:\\marketplace\\contracts\\Factory.sol",
  "compiler": {
    "name": "solc",
    "version": "0.5.16+commit.9c3226ce.Emscripten.clang"
  },
  "schemaVersion": "3.3.4",
  "updatedAt": "2021-03-23T14:12:41.125Z",
  "devdoc": {
    "methods": {}
  },
  "userdoc": {
    "methods": {}
  }
}